:0400000080310B2818
:10000800803120007F08F0007008FF00090080316F
:100018000D28FC0130308400003085001730FE00C8
:100028000030FF008E3179268031A0308400003006
:1000380085001430FE000030FF008E3179268031B3
:10004800C0308400013085002030FE000030FF0001
:100058008E3179268031F93084008E308500473022
:100068008600003087000030FF0015308E316D2685
:10007800200087311D2F02302000DC005C08F300CF
:100088002030DD005D08F400C0308631E72680317D
:1000980006302000DC005C08C5004408F100003090
:1000A800F200C030F3000130F4004508DC00DD0147
:1000B8005C08F5005D08F6008731B02708000330BA
:1000C8002000DC005C08F3002030DD005D08F4004F
:1000D800C0308631E726803106302000DC005C081D
:1000E800C5004408F1000030F200C030F3000130D0
:1000F800F4004508DC00DD015C08F5005D08F60049
:100108008731B02708005E30863177268031003A83
:100118000319A52806302000DC005C08C500440847
:10012800F1000030F2005E30F3000030F4004508C2
:10013800DC00DD015C08F5005D08F6008731B027BA
:1001480008008F31E12708007208F601F6077108E8
:10015800F501F50775088400760885000008003861
:100168000319BB280130F5070030F63DAE287109A8
:10017800F3007209F400F30A0319F40A7508730707
:10018800F1007608743DF2000800F80022000D1313
:100198008E312026803121000D127808403E8F31A3
:1001A8006D27803175088F316D27803176088F3142
:1001B8006D27803177088F316D27803121000D162A
:1001C80022000D178E3120260800F4010830F200B5
:1001D8007208F3008E314C2680310310F40DFE3086
:1001E800F2007208F40520000D1A74140130F302AD
:1001F800031DEE28740808008131820702297C0853
:10020800073A031D1D29A030F1000030F2005430D8
:10021800F3008430F4000730F5000030F600853133
:10022800B425813172087104031D1D298E310726FA
:1002380008007C08083A031D3729A030F100003077
:10024800F2002330F3008430F4000830F500003069
:10025800F6008531B425813172087104031D3729F0
:100268008E310C2608007C080E3A031D5129A03057
:10027800F1000030F200BF30F3008330F4000E309C
:10028800F5000030F6008531B4258131720871041B
:10029800031D51298E31112608007C080D3A031DD3
:1002A8006B29A030F1000030F200DC30F30083301D
:1002B800F4000D30F5000030F6008531B4258131A9
:1002C80072087104031D6B298E31162608007C08FC
:1002D800073A031D8529A030F1000030F2003430C0
:1002E800F3008430F4000730F5000030F600853163
:1002F800B425813172087104031D85298E31922637
:1003080008007C08073A031D9F29A030F10000303F
:10031800F2003C30F3008430F4000730F500003080
:10032800F6008531B425813172087104031D9F29B7
:100338008E31A22608007C08073A031DB929A0308F
:10034800F1000030F2004430F3008430F40007304C
:10035800F5000030F6008531B4258131720871044A
:10036800031DB9298E31B22608007C080A3A031DFC
:10037800DD2920003508F201F2073408F101F10700
:100388002C30F3008430F4000730F5000030F6001C
:100398008531B425813172087104031DDD292000DF
:1003A8003408073EFA000030353DFB0087318227CC
:1003B80008007C08063A031DFA2920003508F201D6
:1003C800F2073408F101F1075C30F3008430F400DF
:1003D8000630F5000030F6008531B4258131720809
:1003E8007104031DFA298531FA2508007C08073AAB
:1003F800031D172A20003508F201F2073408F1011D
:10040800F1074C30F3008430F4000730F500003079
:10041800F6008531B425813172087104031D172A4D
:100428008031872008007C080A3A031D342A2000FE
:100438003508F201F2073408F101F1070E30F30034
:100448008430F4000A30F5000030F6008531B42518
:10045800813172087104031D342A8731DD270800B1
:100468007C08113A031D582A20003508F201F207CA
:100478003408F101F107F730F3008330F4000B3052
:10048800F5000030F6008531B42581317208710419
:10049800031D582A200034080B3EDF000030353D8C
:1004A800E0008E31C22608007C08093A031D752A2F
:1004B80020003508F201F2073408F101F10719307C
:1004C800F3008430F4000930F5000030F60085317F
:1004D800B425813172087104031D752A80313F20CB
:1004E80008007C08103A031D992A20003508F201FB
:1004F800F2073408F101F1070330F3008430F40007
:100508000A30F5000030F6008531B42581317208D3
:100518007104031D992A200034080A3EDF000030C8
:10052800353DE0008431E52408007C080C3A031DC1
:10053800B62A20003508F201F2073408F101F10764
:10054800EA30F3008330F4000C30F5000030F60098
:100558008531B425813172087104031DB62A8031B2
:10056800632008007C08133A031DDA2A20003508A6
:10057800F201F2073408F101F107CE30F3008330BD
:10058800F4000D30F5000030F6008531B4258131D6
:1005980072087104031DDA2A200034080D3EDF00BA
:1005A8000030353DE0008E31D42608008F31A32776
:1005B800080000308B1B0130F6008B1372082300F3
:1005C80092019207710891019107740894019407A8
:1005D8007308930193077508031D9516031995125F
:1005E8001513151215158E31432682317608031915
:0605F80008008B1708004B
:10060000003418340334493400346E340034743404
:10061000003465340034723400346634003461349C
:100620000034633400346534003420340034313411
:1006300000343A34033455340034533400344234F3
:10064000003420340034503400346F3400347434B7
:100650000034653400346E3400347434003469344A
:1006600000346F3400347334003474340034613433
:100670000034743400342F3400346734003461346F
:1006800000346C34003476340034613400346E3419
:1006900000346F3400347334003474340034613403
:1006A0000034743400342C340334433400346F3455
:1006B0000034433400346F3400346F3400344E342B
:1006C0000034203400347234003465340034733420
:1006D00000346534003461340034723400346334DF
:1006E0000034683400342034003467340034723409
:1006F00000346F34003475340034703400340934FD
:100700000234203400340134013402348034323471
:1007100009340434003400340234FF34003400342B
:100720000234073405348134023440340034013457
:1007300007340534013402344034003401341234B7
:100740000134003402340034003400340834A0345E
:10075000A034023400340134003401340234033450
:1007600001340A340334303400343034003430344B
:100770000034313400340434033409340434503444
:100780004F34543445344E34543449344F34533454
:1007900054344134543449344334003453344834A9
:1007A00055344E345434433441344C34533441344E
:1007B0005634453420340034473441344C345634B4
:1007C00041344E344F345334543441345434493426
:1007D000433400345334483455344E345434433461
:1007E00041344C34523445344134443400344F3471
:1007F00046344634533445345434533441345634F7
:100800004534203400344434413443344334413497
:100810004C34533445345434203400344F3446344B
:1008200046345334453454345234453441344434DA
:100830000034443441344334433441344C34473439
:10084000453454340034433445344C344C3420342F
:100850004F34463446340034443441344334533402
:100860004534543420340034523441344E34473407
:100870004534203431340034523441344E3447341A
:100880004534203432340034523441344E34473409
:100890004534203433340034413444344334523406
:1008A0004534413444340034433445344C344C34BE
:1008B00020344F344E3400344434413443344334D0
:1008C00041344C34003457344134493454340A34BC
:1008D00000344F344B340A3400343F340A3400348B
:1008E0003C302100990423008C018D018E012200EF
:1008F0009D0121008C1222008C1221000C1222007A
:100900000C1221000E128E120E1322000E168E12E1
:100910000E138E318526843102302000DE008630B1
:10092000DD009930DC00DC0B932CDD0B932CDE0B0F
:10093000932C8631AF26843102302000DE008630D1
:10094000DD009930DC00DC0BA32CDD0BA32CDE0BCF
:10095000A32C8F310E27843102302000DC005C088C
:10096000F3002030DD005D08F400C0308631E7265A
:100970008431230040082000DC005C08F5002300DF
:1009800041082000DD005D08F60023004208200039
:10099000DE005E08F70008308031C9208431230072
:1009A00043082000DC005C08F50023004408200018
:1009B000DD005D08F600230045082000DE005E082B
:1009C000F7000C308031C920080020006008F801D1
:1009D000F8075F08F701F7070630E1006108F90042
:1009E000023085315425843120005F08840060087E
:1009F00085000008E1006108F5006008E3005F0879
:100A0000E20001306207840063080318630A85006E
:100A10000008E4006408F6006008E6005F08E500EE
:100A200002306507840066080318660A850000081E
:100A3000E7006708F70008308031C92084312000C2
:100A40006008E2005F08E10003306107840062088B
:100A50000318620A85000008E3006308F5006008D7
:100A6000E5005F08E40004306407840065080318AB
:100A7000650A85000008E6006608F6006008E800E0
:100A80005F08E70005306707840068080318680AF4
:100A900085000008E9006908F7000C308031C920A2
:100AA00084318F31C22708002000DC005C08FA0086
:100AB000FB010530FA35FB0D890B5A2D7A08803E73
:100AC000DD001F307B3DDE00213079020318080075
:100AD00004305C02031808005E08F201F2075D08AA
:100AE000F101F1078F313B27853102307902031C78
:100AF0009C2D20005E08F201F2075D08F101F1076C
:100B000077088400780885000008FA00FB017A085D
:100B1000F3007B08F400F501F50A8231DD2285310E
:100B20000130F7070030F83D01302000DD070030CC
:100B3000DE3D0130F902752D20005E08F201F2075A
:100B40005D08F101F1077708840078088500000846
:100B5000FA00FB017A08F3007B08F400F50182310A
:100B6000DD222300150808000130F5020030F63BB5
:100B7000FF307606031DBE2DFF3075060319F72DD5
:100B800071088400720885000008003A0319D62D08
:100B900073088400740885000008F7007108840059
:100BA00072088500000877060319EE2D730884008B
:100BB000740885000008F700F801F709F809F70A3A
:100BC0000319F80A71088400720885000008770785
:100BD000F10078080318780AF20008000130F107E4
:100BE0000030F23D0130F3070030F43DB42DF10147
:100BF000F20108008E31612685311F302000E100AE
:100C00007130E0003B30DF00DF0B042EE00B042EE0
:100C1000E10B042E000062302000DF005F08F500C9
:100C20006330E0006008F6006430E1006108F7001E
:100C3000083087315027853165302000DF005F089C
:100C4000F5006630E0006008F6006730E1006108FA
:100C5000F7000C308731502785316230F7000030C3
:100C6000F80006302000DF005F08F900023085310F
:100C7000542585318F31C2270800F500750886009C
:100C80008701810172088600870181010830F30025
:100C90007308F4008E314C26863175088600870172
:100CA0000310810D7208860087010310810DFE304C
:100CB000F30075088600870173088105FE30F30094
:100CC0007208860087017308810520000D1E6C2EB6
:100CD00075088600870101148E1F722E7208860027
:100CE000870101140130F402031908004A2EF800AC
:100CF000F70122008E118E312026863120000D1A38
:100D0000A92E7808033EF6007608F20078088631AE
:100D10003D2686317808043EF6007608F200780A0F
:100D200086313D2686317808053EF6007608F200C9
:100D30007808023E86313D268631F701F70A220007
:100D40008E158E312026863122008E118E3120267E
:100D5000863122008E158E31202677080800220069
:100D60000D138E312026863122000E150530F3003A
:100D70001B30F200F20BBA2EF30BBA2EBF2E22005C
:100D80000E118E312026863122000E150930F30017
:100D9000E130F200F20BCA2EF30BCA2E22000E1124
:100DA0008E312026863122000E150F30F3001130CF
:100DB000F200F20BD92EF30BD92E22000E118E3138
:100DC0002026863122000D178E3120260800F900DA
:100DD0007308F500F6010530F535F60D890BEC2E9C
:100DE0007508803EF7001F30763DF8002130740210
:100DF000031808000430730203180800F4080319EC
:100E000008007808F201F2077708F101F1078E3146
:100E1000E62686317108F5007908860001308700E2
:100E2000750881000130F7070030F83D0130F5000A
:100E30007508F9070130F402FE2E843170248731E1
:100E40008F315427873127001B169B170B178B17E1
:100E50008E311B268731003A0319282F2000EC0120
:100E60008E31562687312000EA006A08EB006B08B5
:100E70000A3A0319482F6B08EA006C08A03E860066
:100E800087016A0881000130EA006A08EC07302F08
:100E90006C08EA006A08FC00813103218731282FA1
:100EA000F90022000D138E312026873121000D120A
:100EB0007908C03E8F316D27873121000D168E31A4
:100EC000202687318031E9208731F80075088600B7
:100ED0008701780881008031E9208731F8007608A1
:100EE00086008701780881008031E9208731F80089
:100EF0007708860087017808810022000D178E315F
:100F0000202608007A0884007B088500000820005D
:100F1000DC005C08F5007B08DE007A08DD000130AB
:100F20005D0784005E0803185E0A85000008DF0084
:100F30005F08F6007B08E1007A08E00002306007F5
:100F4000840061080318610A85000008E200620855
:100F5000F70000308031C92087318F31C227080067
:100F60007408FB01FB077308FA01FA077208F9011C
:100F7000F9077108F801F8070130F5020030F63B77
:100F8000FF307606031DC62FFF30750603190800D3
:100F90007A0884007B0885000008F700780886003E
:100FA00079088700770881000130FA070030FB3D9F
:100FB0000130F8070030F93DBC2FF301F30A20306F
:100FC0002000DC005C08F400C0308631E726873161
:100FD00006302000DC005C08C5004408F100003049
:100FE000F200C030F3000130F4004508DC00DD0100
:0E0FF0005C08F5005D08F6008731B0270800A8
:101C0E0022000C168F31C227080022000C128F31D1
:101C1E00C227080022008C128F31C2270800220032
:101C2E008C168F31C22708002000110E890C013945
:101C3E0008004230F100F10B222E00000800F200E5
:101C4E007208F10071082000B7000800F200720857
:101C5E00F10071082000B8000800F2007208F100CF
:101C6E0071082000B6000800F1002000111E3C2E65
:101C7E00710823009A000800230055309600AA3000
:101C8E009600951400000000080022000E158E31FB
:101C9E0020268E3122000E118E31202608002000C3
:101CAE00911E562EC00123009D1C5F2E1D121D1667
:101CBE00190808002030F8007808F500A130F90066
:101CCE007908F60004308F3187270800FE001200D5
:101CDE001E000130FE020030FF3B7F087E04031918
:101CEE0000346E2E6400800101310130FE0200309E
:101CFE00FF3B7F087E04031900347A2E22000D1755
:101D0E008E1521000D138E110E1122000E112100C1
:101D1E000D168E17080022000E169C30FB00D730D1
:101D2E00FA00FA0B982EFB0B982E22008E120E1331
:101D3E008F31C227080022008E169C30FB00D73050
:101D4E00FA00FA0BA82EFB0BA82E22000E120E1371
:101D5E008F31C227080022000E179C30FB00D730AF
:101D6E00FA00FA0BB82EFB0BB82E22000E128E12B2
:101D7E008F31C227080020006008F801F8075F08BD
:101D8E00F701F7070630E1006108F90001308531EF
:101D9E0054258E318F31C227080020006008F801CB
:101DAE00F8075F08F701F7070630E1006108F90050
:101DBE000330853154258E318F31C22708007208C9
:101DCE0023009201920771089101910715131514C2
:101DDE000000000023001408F201F2071308F101BD
:101DEE00F1070800003400340034003400340034AD
:101DFE00003490342034D034203440344034003415
:101E0E00803420348834203400347F3483342030BE
:101E1E00F9007908F500A030FA007A08F6000430CF
:101E2E008F3187278F318030F9007908F500F60160
:101E3E00F70100308031C9200800F601F601740860
:101E4E0076020318080072088400730885000008E3
:101E5E008E313B268F310130F2070030F33D0130D9
:101E6E00F5007508F607262F00308B1B0130F300A6
:101E7E008B1372082300920192077108910191074A
:101E8E001513151615158E3143268F312300151196
:101E9E007308031908008B170800083023009F00F1
:101EAE0090309D0024309E0070309B0002309C00CC
:101EBE00FE308E3126268F31FE308E312D268F311B
:101ECE00FE308E3134262000C0010800F3000830A9
:101EDE00F2007208F4000030F31B0130F200F20E33
:101EEE0022000D087206EF3972068D008E314C26D7
:101EFE008F310310F30D0130F40203190800722F15
:101F0E00F70022000D138E3120268F3121000D1285
:101F1E007708203E8F316D278F3175088F316D27F1
:101F2E008F3176088F316D278F3121000D162200EB
:101F3E000D178E31202608006D30F8008430F90020
:101F4E007908F201F2077808F101F1078031A82033
:101F5E008F317108F70077082000C5007908F3016A
:101F6E00F3077808F201F2074508F7007708F40046
:101F7E008F31242708006930F8008430F900790881
:101F8E00F201F2077808F101F1078031A8208F31B4
:101F9E007108F70077082000C5007908F301F307F0
:101FAE007808F201F2074508F7007708F4008F3140
:101FBE00242708006330F8008430F9007908F20114
:101FCE00F2077808F101F1078031A8208F317108EE
:101FDE00F70077082000C5007908F301F3077808A9
:101FEE00F201F2074508F7007708F4008F31242735
:021FFE000800D9
:020000040001F9
:04000E00A4CFCFDFCD
:00000001FF
