:0400000080310B2818
:10000800803120007F08F0007008FF00090080316F
:100018000D28FC01203084000030850039308731FC
:10002800EC2720008531072D003450344F345434E8
:1000380045344E34543449344F34533454344134B1
:1000480054344934433400345334483455344E34EA
:100058005434433441344C345334413456344534A5
:1000680020340034473441344C34563441344E340F
:100078004F345334543441345434493443340034C1
:100088005334483455344E345434433441344C3466
:10009800523445344134443400344F3446344634C1
:1000A800533445345434533441345634453420346D
:1000B8000034443441344334433441344C345334AD
:1000C80045345434203400344F34463446345334A1
:1000D800453454345234453441344434003444347F
:1000E80041344334433441344C3447344534543434
:1000F8000034433445344C344C3420344F34463483
:1001080046340034523465346134643479342134EB
:100118000A34003444344134433453344534543479
:1001280020340034523441344E344734453420347A
:1001380031340034523441344E3447344534203459
:1001480032340034523441344E3447344534203448
:100158003334003441344434433452344534413424
:1001680044340034433445344C344C3420344F3414
:100178004E340034443441344334433441344C34F1
:10018800003457344134493454340A3400344F3439
:100198004B340A3400343F340A34003422008C16BD
:1001A8008631B226080022008C128631B226080059
:1001B80022000C128631B226080022000C16863165
:0401C800B226080053
:100200008131820702297C08073A031D1B29B63079
:100210002000E5006508F1000730F2000030F3002F
:1002200045308331AB23813172087104031D1B29D2
:100230008031E12008007C08083A031D33297D3015
:100240002000E5006508F1000830F2000030F300FE
:1002500045308331AB23813172087104031D33298A
:100260008031DC2008007C080E3A031D4B29193030
:100270002000E5006508F1000E30F2000030F300C8
:1002800045308331AB23813172087104031D4B2942
:100290008031D72008007C080D3A031D63293630D1
:1002A0002000E5006508F1000D30F2000030F30099
:1002B00045308331AB23813172087104031D6329FA
:1002C0008031D22008007C08073A031D7B29963034
:1002D0002000E5006508F1000730F2000030F3006F
:1002E00045308331AB23813172087104031D7B29B2
:1002F00087314B2708007C08073A031D93299E305D
:100300002000E5006508F1000730F2000030F3003E
:1003100045308331AB23813172087104031D932969
:1003200087313A2708007C08073A031DAB29A6301D
:100330002000E5006508F1000730F2000030F3000E
:1003400045308331AB23813172087104031DAB2921
:100350008731292708007C080A3A031DC4298E30FA
:100360002000E5006508F1000730F2000030F300DE
:1003700045308331AB23813172087104031DC429D8
:100380004C308531F02508007C08063A031DDC2935
:10039000BE302000E5006508F1000630F2000030B4
:1003A000F30045308331AB23813172087104031DA2
:1003B000DC298331682308007C08073A031DF429EF
:1003C000AE302000E5006508F1000730F200003093
:1003D000F30045308331AB23813172087104031D72
:1003E000F42987318A2708007C080A3A031D0C2A61
:1003F00068302000E5006508F1000A30F2000030A6
:10040000F30045308331AB23813172087104031D41
:100410000C2A87317C2708007C08113A031D252A05
:1004200051302000E5006508F1000B30F20000308B
:10043000F30045308331AB23813172087104031D11
:10044000252A50308731182708007C08093A031DF7
:100450003D2A73302000E5006508F1000930F20004
:100460000030F30045308331AB23813172087104D1
:10047000031D3D2A87315C2708007C08103A031DC4
:10048000562A5D302000E5006508F1000A30F200D0
:100490000030F30045308331AB23813172087104A1
:1004A000031D562A4F308331ED2308007C080C3A97
:1004B000031D6E2A44302000E5006508F1000C3071
:1004C000F2000030F30045308331AB2381317208F4
:1004D0007104031D6E2A87316C2708007C08133ACB
:1004E000031D872A28302000E5006508F1000D3043
:1004F000F2000030F30045308331AB2381317208C4
:100500007104031D872A523087310727080086317E
:10051000C82608003C302100990423008C018D017D
:100520008E0122009D0121008C1222008C122100DC
:100530000C1222000C1221000E128E120E13220039
:100540000E168E120E13873198278231023020004A
:10055000DD008630DC009930DB00DB0BAD2ADC0BE4
:10056000AD2ADD0BAD2A84319A248231023020007D
:10057000DD008630DC009930DB00DB0BBD2ADC0BB4
:10058000BD2ADD0BBD2A8631DE26823102302000F5
:10059000DB005B08F3002030DC005C08F400253051
:1005A0008431D224823120002508DB005B08F5006D
:1005B0002608DC005C08F6002708DD005D08F7006F
:1005C00008308531B425823120002808DB005B0823
:1005D000F5002908DC005C08F6002A08DD005D084B
:1005E000F7000C308531B4258231863156268231B0
:1005F00086302000DB005B08FB007B0885316D2521
:10060000823171082000DB005B08F9007B0886312D
:100610003D2608002000D9005908F900FA010530EC
:10062000F935FA0D890B102B7908803EDA001F305E
:100630007A3DDB00213078020318080004305902AB
:10064000031808005B08F201F2075A08F101F107EC
:1006500086312426833102307802031C512B20007E
:100660005B08F201F2075A08F101F10777088600EA
:1006700087010108F900FA017908F3007A08F4000B
:10068000F501F50A8531922583310130F9007908A9
:10069000F70701302000DA070030DB3D0130F802B7
:1006A0002B2B20005B08F201F2075A08F101F10739
:1006B0007708860087010108F900FA017908F3003C
:1006C0007A08F400F5018531922523001508080009
:1006D0008731A52783311F302000DE007130DD0017
:1006E0003B30DC00DC0B722BDD0B722BDE0B722B34
:1006F00000005F302000DC005C08F5006030DD00A9
:100700005D08F6006130DE005E08F70008308531D4
:100710003B25833162302000DC005C08F50063304B
:10072000DD005D08F6006430DE005E08F7000C3086
:1007300085313B2583315F302000DC005C08F70009
:100740000630DD005D08F800023083310A23833172
:100750008631B2260800F6000130F2020030F33B89
:10076000FF307306031DB62BFF3072060319EA2B08
:100770007608860087010108003A0319CB2B71081F
:1007800080310A008331F400760886008701010871
:1007900074060319E12B710880310A008331F400DB
:1007A000F501F409F509F40A0319F50A760886003B
:1007B000870101087407F10075080318750AF20033
:1007C00008000130F4007408F6070130F4007408E2
:1007D000F107AC2BF101F20108002000DE005E08F9
:1007E000DC005C08F7000630DD005D08F800023030
:1007F00083310A23833120005E08860087010108C7
:10080000DC005C08F5005E0886008701413FF600C9
:100810005E0886008701423FF70008308531B42525
:10082000833120005E0886008701433FF5005E08A3
:1008300086008701443FF6005E0886008701453F39
:10084000F7000C308531B42583318631B22608009B
:10085000F50075088600870181017208860087010E
:1008600081010830F3007308F4008731BC2784311C
:100870007508860087010310810D720886008701C4
:100880000310810DFE30F3007508860087017308A0
:100890008105FE30F3007208860087017308810528
:1008A00020000D1E572C75088600870101148E1F2D
:1008B0005D2C72088600870101140130F4020319CF
:1008C0000800352CF800F70122008E118731F2273D
:1008D000843120000D1A942C7808033EF600760827
:1008E000F20078088431282484317808043EF60028
:1008F0007608F200780A8431282484317808053E8D
:10090000F6007608F2007808023E8431282484310B
:10091000F701F70A22008E158731F2278431220071
:100920008E118731F227843122008E158731F2270C
:100930007708080022000D138731F2278431220046
:100940000E150530F3001B30F200F20BA52CF30B53
:10095000A52CAA2C22000E118731F2278431220007
:100960000E150930F300E130F200F20BB52CF30B59
:10097000B52C22000E118731F227843122000E158A
:100980000F30F3001130F200F20BC42CF30BC42C27
:1009900022000E118731F227843122000D17873192
:1009A000F2270800F7007308F500F6010530F53569
:1009B000F60D890BD72C7508803EF8001F30763D68
:1009C000F900213074020318080004307302031880
:1009D0000800F408031908007908F201F207780802
:1009E000F101F1078631F42684317108F5007708AA
:1009F00086008701750881000130F8070030F93D55
:100A00000130F5007508F7070130F402E92C823156
:100A10008A22853127001B169B170B178B178731EE
:100A2000F8278531003A03190F2D2000E701242D06
:100A30006808E6006708453E860087016608810071
:100A40000130E6006608E7078731B12785312000CD
:100A5000E6006608E80068080D3A0319332D6808B7
:100A60000A3A031D182D6708E6006608FC0081316C
:100A7000032185310F2DF90022000D138731F22754
:100A8000853121000D127908C03E86310A26853154
:100A900021000D168731F227853186316F26853189
:100AA000F8007508860087017808810086316F2676
:100AB0008531F80076088600870178088100863144
:100AC0006F268531F8007708860087017808810055
:100AD00022000D178731F2270800F7007708F3008E
:100AE0007308F800780880310A008531003803194E
:100AF0007E2D0130F3007308F807722D7708F3009C
:100B00008030F400F309F409F30A0319F40A7808B1
:100B1000F5008030F60073087507F1007408763D23
:100B2000F200080000308B1B0130F6008B137208B6
:100B300023009201920771089101910774089401B2
:100B400094077308930193077508031D95160319FD
:100B500095121513151215158731C627853176089C
:100B6000031908008B170800F80022000D138731C5
:100B7000F227853121000D127808403E86310A2681
:100B80008531750886310A268531760886310A2630
:100B90008531770886310A26853121000D1622001D
:100BA0000D178731F2270800F70022000D13873157
:100BB000F227853121000D127708203E86310A2662
:100BC0008531750886310A268531760886310A26F0
:100BD000853121000D1622000D178731F2270800FC
:100BE0002000DD005D08860087010108DC005C084C
:100BF000F5005D0886008701413FF6005D0886002C
:100C00008701423FF70000308531B42585318631B8
:100C1000B2260800F3000830F2007208F400003039
:100C2000F31B0130F200F20E22000D087206EF39BC
:100C300072068D008731BC2786310310F30D013019
:100C4000F402031908000F2E00308B1B0130F30053
:100C50008B1372082300920192077108910191078A
:100C60001513151615158731C62786312300151162
:100C70007308031908008B1708002000D900DA0157
:100C8000DA0179085A0203180800590880310A006D
:100C900086318731CF2786310130FA007A0820006B
:100CA000D9070130FA007A08DA07412E083023000C
:100CB0009F0090309D0024309E0070309B000230D9
:100CC0009C00FE308731E5278631FE308731DE27F4
:100CD0008631FE308731D7272000A3010800F401B8
:100CE0000830F2007208F3008731BC278631031008
:100CF000F40DFE30F2007208F40520000D1A741491
:100D00000130F302031D742E74080800F300F4018F
:100D10000630740203180800730886008701010872
:100D20008731CF2786310130F2007208F307013096
:100D3000F2007208F407882EC530FB007B08200003
:100D4000DB005B0885316D2586317108FB007B086F
:100D50002000A4002408FB007B08F9005B08863112
:100D60003D260800CB30FB007B082000DB005B0841
:100D700085316D2586317108FB007B082000A400B9
:100D80002408FB007B08F9005B0886313D2608003B
:100D9000CF30FB007B082000DB005B0885316D2530
:100DA00086317108FB007B082000A4002408FB00AA
:100DB0007B08F9005B0886313D2608002030F900E9
:100DC0007908F500A030FA007A08F6000430853181
:100DD000D42586318030F9007908F500F601F70155
:100DE00000308531B4250800720823009201920773
:100DF00071089101910715131514000000002300DC
:100E00001408F201F2071308F101F10708002000AD
:100E1000DE005E08DC005C08F7000630DD005D08DF
:100E2000F800033083310A2387318631B226080067
:100E30002000DE005E08DC005C08F7000630DD0004
:100E40005D08F800013083310A2387318631B226EC
:100E5000080022000E179C302000DD00D730DC0097
:100E6000DC0B302FDD0B302F22000E128E1286315C
:100E7000B226080022008E169C302000DD00D730FC
:100E8000DC00DC0B412FDD0B412F22000E120E1374
:100E90008631B226080022000E169C302000DD00AC
:100EA000D730DC00DC0B522FDD0B522F22008E12CC
:100EB0000E138631B22608000230FA007A08F300D9
:100EC0002030FB007B08F40025308431D2248731A8
:100ED00025308631862608000330FA007A08F300B0
:100EE0002030FB007B08F40025308431D224873188
:100EF0002530863186260800F301F30A2030FA00F7
:100F00007A08F40025308431D224873125308631A7
:100F1000862608005C30843162248731003A031948
:100F2000952F5C3086318626080086319C26080085
:100F300022000D178E1521000D138E110E112200A7
:100F40000E1121000D168E1708002030F8007808C9
:100F5000F500A130F9007908F60004308531D42578
:100F600008002000911EB12FA30123009D1CBA2F61
:100F70001D121D161908080022000E158731F227D0
:100F8000873122000E118731F227080023005530E7
:100F90009600AA3096009514000000000800F100A9
:100FA0002000111ED02F710823009A000800F200C3
:100FB0007208F10071082000A0000800F200720819
:100FC000F10071082000A2000800F2007208F10090
:100FD00071082000A1000800640080010131890B24
:100FE000ED2F00344230F100F10BF42F0000080027
:0A0FF0002000110E890C01390800E1
:020000040001F9
:04000E00A4CFCFDFCD
:00000001FF
